{
  "contractName": "CampaignFactory",
  "abi": [
    {
      "constant": true,
      "inputs": [
        {
          "name": "",
          "type": "uint256"
        }
      ],
      "name": "deployedCampaigns",
      "outputs": [
        {
          "name": "",
          "type": "address"
        }
      ],
      "payable": false,
      "stateMutability": "view",
      "type": "function"
    },
    {
      "constant": true,
      "inputs": [],
      "name": "getDeployedCampaigns",
      "outputs": [
        {
          "name": "",
          "type": "address[]"
        }
      ],
      "payable": false,
      "stateMutability": "view",
      "type": "function"
    },
    {
      "constant": false,
      "inputs": [
        {
          "name": "campaignName",
          "type": "string"
        }
      ],
      "name": "createCampaign",
      "outputs": [],
      "payable": false,
      "stateMutability": "nonpayable",
      "type": "function"
    }
  ],
  "bytecode": "0x6060604052341561000f57600080fd5b6119498061001e6000396000f300606060405260043610610057576000357c0100000000000000000000000000000000000000000000000000000000900463ffffffff168063339d50a51461005c5780634acb9d4f146100bf578063fdbf9ff114610129575b600080fd5b341561006757600080fd5b61007d6004808035906020019091905050610186565b604051808273ffffffffffffffffffffffffffffffffffffffff1673ffffffffffffffffffffffffffffffffffffffff16815260200191505060405180910390f35b34156100ca57600080fd5b6100d26101c5565b6040518080602001828103825283818151815260200191508051906020019060200280838360005b838110156101155780820151818401526020810190506100fa565b505050509050019250505060405180910390f35b341561013457600080fd5b610184600480803590602001908201803590602001908080601f01602080910402602001604051908101604052809392919081815260200183838082843782019150505050505091905050610259565b005b60008181548110151561019557fe5b90600052602060002090016000915054906101000a900473ffffffffffffffffffffffffffffffffffffffff1681565b6101cd610386565b600080548060200260200160405190810160405280929190818152602001828054801561024f57602002820191906000526020600020905b8160009054906101000a900473ffffffffffffffffffffffffffffffffffffffff1673ffffffffffffffffffffffffffffffffffffffff1681526020019060010190808311610205575b5050505050905090565b6000813361026561039a565b80806020018373ffffffffffffffffffffffffffffffffffffffff1673ffffffffffffffffffffffffffffffffffffffff168152602001828103825284818151815260200191508051906020019080838360005b838110156102d45780820151818401526020810190506102b9565b50505050905090810190601f1680156103015780820380516001836020036101000a031916815260200191505b509350505050604051809103906000f080151561031d57600080fd5b90506000805480600101828161033391906103aa565b9160005260206000209001600083909190916101000a81548173ffffffffffffffffffffffffffffffffffffffff021916908373ffffffffffffffffffffffffffffffffffffffff160217905550505050565b602060405190810160405280600081525090565b604051611522806103fc83390190565b8154818355818115116103d1578183600052602060002091820191016103d091906103d6565b5b505050565b6103f891905b808211156103f45760008160009055506001016103dc565b5090565b905600606060405234156200001057600080fd5b604051620015223803806200152283398101604052808051820191906020018051906020019091905050806000806101000a81548173ffffffffffffffffffffffffffffffffffffffff021916908373ffffffffffffffffffffffffffffffffffffffff1602179055508160019080519060200190620000929291906200009b565b5050506200014a565b828054600181600116156101000203166002900490600052602060002090601f016020900481019282601f10620000de57805160ff19168380011785556200010f565b828001600101855582156200010f579182015b828111156200010e578251825591602001919060010190620000f1565b5b5090506200011e919062000122565b5090565b6200014791905b808211156200014357600081600090555060010162000129565b5090565b90565b6113c8806200015a6000396000f30060606040526004361061011d576000357c0100000000000000000000000000000000000000000000000000000000900463ffffffff16806306fdde03146101225780630d15fd77146101b05780633477ee2e146101d95780634051ddac14610329578063481c6a7514610360578063522e1177146103b5578063704fe710146103e2578063749e28b9146104195780638574c29614610445578063bb9aa28f1461045a578063bd5b5faf14610483578063bec0fde21461052c578063c0f2a77714610596578063cd65a20a146105bf578063d3fe94bf14610668578063d64042a31461069f578063da58c7d914610709578063da60f7b114610864578063de2927891461089b578063dfbf53ae146108d2578063f8394d63146108fb575b600080fd5b341561012d57600080fd5b610135610932565b6040518080602001828103825283818151815260200191508051906020019080838360005b8381101561017557808201518184015260208101905061015a565b50505050905090810190601f1680156101a25780820380516001836020036101000a031916815260200191505b509250505060405180910390f35b34156101bb57600080fd5b6101c36109d0565b6040518082815260200191505060405180910390f35b34156101e457600080fd5b6101fa60048080359060200190919050506109d6565b6040518085815260200180602001806020018481526020018381038352868181546001816001161561010002031660029004815260200191508054600181600116156101000203166002900480156102935780601f1061026857610100808354040283529160200191610293565b820191906000526020600020905b81548152906001019060200180831161027657829003601f168201915b50508381038252858181546001816001161561010002031660029004815260200191508054600181600116156101000203166002900480156103165780601f106102eb57610100808354040283529160200191610316565b820191906000526020600020905b8154815290600101906020018083116102f957829003601f168201915b5050965050505050505060405180910390f35b341561033457600080fd5b61033c610a13565b60405180848152602001838152602001828152602001935050505060405180910390f35b341561036b57600080fd5b610373610a32565b604051808273ffffffffffffffffffffffffffffffffffffffff1673ffffffffffffffffffffffffffffffffffffffff16815260200191505060405180910390f35b34156103c057600080fd5b6103c8610a57565b604051808215151515815260200191505060405180910390f35b34156103ed57600080fd5b6104036004808035906020019091905050610a6a565b6040518082815260200191505060405180910390f35b341561042457600080fd5b6104436004808035906020019091908035906020019091905050610a8e565b005b341561045057600080fd5b610458610b65565b005b341561046557600080fd5b61046d610cef565b6040518082815260200191505060405180910390f35b341561048e57600080fd5b61052a600480803590602001909190803590602001908201803590602001908080601f0160208091040260200160405190810160405280939291908181526020018383808284378201915050505050509190803590602001908201803590602001908080601f01602080910402602001604051908101604052809392919081815260200183838082843782019150505050505091905050610cfc565b005b341561053757600080fd5b61053f610df3565b6040518080602001828103825283818151815260200191508051906020019060200280838360005b83811015610582578082015181840152602081019050610567565b505050509050019250505060405180910390f35b34156105a157600080fd5b6105a9610e51565b6040518082815260200191505060405180910390f35b34156105ca57600080fd5b610666600480803590602001909190803590602001908201803590602001908080601f0160208091040260200160405190810160405280939291908181526020018383808284378201915050505050509190803590602001908201803590602001908080601f01602080910402602001604051908101604052809392919081815260200183838082843782019150505050505091905050610e5e565b005b341561067357600080fd5b6106896004808035906020019091905050610f7e565b6040518082815260200191505060405180910390f35b34156106aa57600080fd5b6106b2610fa2565b6040518080602001828103825283818151815260200191508051906020019060200280838360005b838110156106f55780820151818401526020810190506106da565b505050509050019250505060405180910390f35b341561071457600080fd5b61072a6004808035906020019091905050611000565b604051808681526020018060200180602001851515151581526020018481526020018381038352878181546001816001161561010002031660029004815260200191508054600181600116156101000203166002900480156107cd5780601f106107a2576101008083540402835291602001916107cd565b820191906000526020600020905b8154815290600101906020018083116107b057829003601f168201915b50508381038252868181546001816001161561010002031660029004815260200191508054600181600116156101000203166002900480156108505780601f1061082557610100808354040283529160200191610850565b820191906000526020600020905b81548152906001019060200180831161083357829003601f168201915b505097505050505050505060405180910390f35b341561086f57600080fd5b6108856004808035906020019091905050611050565b6040518082815260200191505060405180910390f35b34156108a657600080fd5b6108ae611068565b60405180848152602001838152602001828152602001935050505060405180910390f35b34156108dd57600080fd5b6108e56110b4565b6040518082815260200191505060405180910390f35b341561090657600080fd5b61091c60048080359060200190919050506110ba565b6040518082815260200191505060405180910390f35b60018054600181600116156101000203166002900480601f0160208091040260200160405190810160405280929190818152602001828054600181600116156101000203166002900480156109c85780601f1061099d576101008083540402835291602001916109c8565b820191906000526020600020905b8154815290600101906020018083116109ab57829003601f168201915b505050505081565b60065481565b6004818154811015156109e557fe5b9060005260206000209060040201600091509050806000015490806001019080600201908060030154905084565b6000806000600280549050600480549050600654925092509250909192565b6000809054906101000a900473ffffffffffffffffffffffffffffffffffffffff1681565b600760009054906101000a900460ff1681565b600581815481101515610a7957fe5b90600052602060002090016000915090505481565b60008060026009600086815260200190815260200160002054815481101515610ab357fe5b906000526020600020906005020191508160030160009054906101000a900460ff16151515610ae157600080fd5b60018260030160006101000a81548160ff0219169083151502179055508282600401819055506004600a600085815260200190815260200160002054815481101515610b2957fe5b90600052602060002090600402019050806003016000815480929190600101919050555060066000815480929190600101919050555050505050565b6000806000809054906101000a900473ffffffffffffffffffffffffffffffffffffffff1673ffffffffffffffffffffffffffffffffffffffff163373ffffffffffffffffffffffffffffffffffffffff16141515610bc357600080fd5b6000809054906101000a900473ffffffffffffffffffffffffffffffffffffffff1673ffffffffffffffffffffffffffffffffffffffff163373ffffffffffffffffffffffffffffffffffffffff16141515610c1e57600080fd5b600760009054906101000a900460ff16151515610c3a57600080fd5b6001600760006101000a81548160ff02191690831515021790555060009150600090505b600480549050811015610ceb5781600482815481101515610c7b57fe5b9060005260206000209060040201600301541115610cde57600481815481101515610ca257fe5b9060005260206000209060040201600301549150600481815481101515610cc557fe5b9060005260206000209060040201600001546008819055505b8080600101915050610c5e565b5050565b6000600480549050905090565b610d046110d2565b6080604051908101604052808581526020018481526020018381526020016000815250905060048054806001018281610d3d9190611107565b91600052602060002090600402016000839091909150600082015181600001556020820151816001019080519060200190610d79929190611139565b506040820151816002019080519060200190610d96929190611139565b506060820151816003015550505060058054806001018281610db891906111b9565b916000526020600020900160008690919091505550600160058054905003600a60008681526020019081526020016000208190555050505050565b610dfb6111e5565b6005805480602002602001604051908101604052809291908181526020018280548015610e4757602002820191906000526020600020905b815481526020019060010190808311610e33575b5050505050905090565b6000600280549050905090565b610e666111f9565b60a0604051908101604052808581526020018481526020018381526020016000151581526020016000815250905060028054806001018281610ea89190611237565b91600052602060002090600502016000839091909150600082015181600001556020820151816001019080519060200190610ee4929190611139565b506040820151816002019080519060200190610f01929190611139565b5060608201518160030160006101000a81548160ff0219169083151502179055506080820151816004015550505060038054806001018281610f4391906111b9565b916000526020600020900160008690919091505550600160038054905003600960008681526020019081526020016000208190555050505050565b600381815481101515610f8d57fe5b90600052602060002090016000915090505481565b610faa6111e5565b6003805480602002602001604051908101604052809291908181526020018280548015610ff657602002820191906000526020600020905b815481526020019060010190808311610fe2575b5050505050905090565b60028181548110151561100f57fe5b9060005260206000209060050201600091509050806000015490806001019080600201908060030160009054906101000a900460ff16908060040154905085565b600a6020528060005260406000206000915090505481565b60008060006006546004600a600060085481526020019081526020016000205481548110151561109457fe5b906000526020600020906004020160030154600854925092509250909192565b60085481565b60096020528060005260406000206000915090505481565b608060405190810160405280600081526020016110ed611269565b81526020016110fa611269565b8152602001600081525090565b81548183558181151161113457600402816004028360005260206000209182019101611133919061127d565b5b505050565b828054600181600116156101000203166002900490600052602060002090601f016020900481019282601f1061117a57805160ff19168380011785556111a8565b828001600101855582156111a8579182015b828111156111a757825182559160200191906001019061118c565b5b5090506111b591906112cc565b5090565b8154818355818115116111e0578183600052602060002091820191016111df91906112cc565b5b505050565b602060405190810160405280600081525090565b60a06040519081016040528060008152602001611214611269565b8152602001611221611269565b8152602001600015158152602001600081525090565b8154818355818115116112645760050281600502836000526020600020918201910161126391906112f1565b5b505050565b602060405190810160405280600081525090565b6112c991905b808211156112c5576000808201600090556001820160006112a49190611354565b6002820160006112b49190611354565b600382016000905550600401611283565b5090565b90565b6112ee91905b808211156112ea5760008160009055506001016112d2565b5090565b90565b61135191905b8082111561134d576000808201600090556001820160006113189190611354565b6002820160006113289190611354565b6003820160006101000a81549060ff02191690556004820160009055506005016112f7565b5090565b90565b50805460018160011615610100020316600290046000825580601f1061137a5750611399565b601f01602090049060005260206000209081019061139891906112cc565b5b505600a165627a7a7230582060700230b81709333e3f46d81deda96349c5b49620c522c30948bb57743961700029a165627a7a7230582066d198a80f25bf0958deefc1ebe0435f654a3805e47f122b663cbf7c5c0d26500029",
  "source": "pragma solidity ^0.4.17;\n\n/*\n    Contract CampaignFactory to create new campaigns and\n    store addresses of the created campaigns\n*/\ncontract CampaignFactory {\n    address[] public deployedCampaigns;\n    \n    function createCampaign(string campaignName) public {\n        address newCampaign = new Campaign(campaignName, msg.sender);\n        deployedCampaigns.push(newCampaign);\n    }\n    \n    function getDeployedCampaigns() public view returns(address[]) {\n        return deployedCampaigns;\n    }\n}\n\n/*\n    Contract Campaign to provide the actual functionality\n    to manage the complete election campaign from start to end\n*/\ncontract Campaign {\n    // voter model\n    struct Voter {\n        uint uid;   // unique id\n        string fullName;\n        string location;\n        bool voted;\n        uint cid;\n    }\n    \n    // candidate model\n    struct Candidate {\n        uint uid;   // unique id\n        string fullName;\n        string location;\n        uint votes;\n    }\n    \n    address public manager; // election manager private key address\n    string public name;     // campaign name\n\n    Voter[] public voters;  // array of voters\n    uint[] public vids;     // array of voter ids for lookup\n\n    Candidate[] public candidates;  // array of candidates\n    uint[] public cids;             // array of candidate ids for lookup\n\n    uint public totalVotes;         // total votes polled\n    bool public complete;           // campaign status\n\n    uint public winner;             // winner uid\n    \n    mapping(uint => uint) public voterIndex;\n    mapping(uint => uint) public candidateIndex;\n    \n    // create campaign function\n    function Campaign(string campaignName, address sender) public {\n        manager = sender;\n        name = campaignName;\n    }\n    \n    // register a new voter function\n    function registerVoter(uint uid, string fullName, string location) public {\n        Voter memory newVoter = Voter({\n            uid: uid,\n            fullName: fullName,\n            location: location,\n            voted: false,\n            cid: 0\n        });\n        \n        voters.push(newVoter);\n        vids.push(uid);\n        voterIndex[uid] = vids.length-1;\n    }\n    \n    // register a new candidate function\n    function registerCandidate(uint uid, string fullName, string location) public {\n        Candidate memory newCandidate = Candidate({\n            uid: uid,\n            fullName: fullName,\n            location: location,\n            votes: 0\n        });\n        \n        candidates.push(newCandidate);\n        cids.push(uid);\n        candidateIndex[uid] = cids.length-1;\n    }\n\n    // poll vote function    \n    function pollVote(uint vid, uint cid) public {\n        Voter storage voter = voters[voterIndex[vid]];\n        //check if user already voted\n        require(!voter.voted);\n        // else poll vote\n        voter.voted = true;\n        voter.cid = cid;\n\n        // increase candidate vote count\n        Candidate storage candidate = candidates[candidateIndex[cid]];\n        candidate.votes++;\n        \n        // increase total vote count\n        totalVotes++;\n    }\n    \n    // declare the campaign result\n    function declareResult() public restricted {\n        require(msg.sender == manager);\n        require(!complete);\n        // close the poll\n        complete = true;\n        \n        uint max = 0;\n        for (uint i=0; i<candidates.length; i++) {\n            if (candidates[i].votes > max) {\n                max = candidates[i].votes;\n                winner = candidates[i].uid;\n            }\n        }\n    }\n    \n    // get result summary\n    function getResult() public view returns(\n        uint, uint, uint\n        ) {\n        return (\n            totalVotes, \n            candidates[candidateIndex[winner]].votes, \n            winner\n        );    \n    }\n    \n    // get campaign summary\n    function getSummary() public view returns(\n        uint, uint, uint\n        ) {\n        return (\n            voters.length, \n            candidates.length, \n            totalVotes\n        );    \n    }\n\n    // get total registered voters count\n    function getVotersCount() public view returns(uint) {\n        return voters.length;\n    }\n\n    // get total registered candidate count\n    function getCandidatesCount() public view returns(uint) {\n        return candidates.length;\n    }\n\n    // get unique ids of all registered voters\n    function getVoterIds() public view returns(uint[]) {\n        return vids;\n    }\n\n    // get unique ids of all registered candidates\n    function getCandidateIds() public view returns(uint[]) {\n        return cids;\n    }\n    \n    // modifier to restrict method calling only by the campaign manager\n    modifier restricted {\n        require(msg.sender == manager);\n        _;\n    }\n}\n",
  "sourcePath": "/home/rohith/B.A.V.I/BAVI_eth_nw/truffle/contracts/Campaign.sol",
  "compiler": {
    "name": "solc",
    "version": "0.4.18+commit.9cf6e910.Emscripten.clang"
  },
  "schemaVersion": "1.0.1",
  "updatedAt": "2020-04-01T14:42:39.726Z"
}