{
  "contractName": "Hello",
  "abi": [
    {
      "constant": true,
      "inputs": [],
      "name": "message",
      "outputs": [
        {
          "internalType": "string",
          "name": "",
          "type": "string"
        }
      ],
      "payable": false,
      "stateMutability": "view",
      "type": "function"
    },
    {
      "constant": false,
      "inputs": [],
      "name": "hello",
      "outputs": [],
      "payable": false,
      "stateMutability": "nonpayable",
      "type": "function"
    }
  ],
  "bytecode": "0x608060405234801561001057600080fd5b506102c5806100206000396000f3fe608060405234801561001057600080fd5b50600436106100365760003560e01c806319ff1d211461003b578063e21f37ce14610045575b600080fd5b6100436100c8565b005b61004d6100f9565b6040518080602001828103825283818151815260200191508051906020019080838360005b8381101561008d578082015181840152602081019050610072565b50505050905090810190601f1680156100ba5780820380516001836020036101000a031916815260200191505b509250505060405180910390f35b60405180608001604052806054815260200161023d60549139600090805190602001906100f6929190610197565b50565b60008054600181600116156101000203166002900480601f01602080910402602001604051908101604052809291908181526020018280546001816001161561010002031660029004801561018f5780601f106101645761010080835404028352916020019161018f565b820191906000526020600020905b81548152906001019060200180831161017257829003601f168201915b505050505081565b828054600181600116156101000203166002900490600052602060002090601f016020900481019282601f106101d857805160ff1916838001178555610206565b82800160010185558215610206579182015b828111156102055782518255916020019190600101906101ea565b5b5090506102139190610217565b5090565b61023991905b8082111561023557600081600090555060010161021d565b5090565b9056fe48656c6c6f2c20576f726c64203a2054686973206973206120536f6c696469747920536d61727420436f6e7472616374206f6e20746865205072697661746520457468657265756d20426c6f636b636861696e20a265627a7a7231582052477cda3bc3d22bf1d92457d723f4fb85da73c9c54c55e4ce8ec0682b68433064736f6c63430005100032",
  "source": "pragma solidity >=0.4.21 <0.7.0;\ncontract Hello {   \n\tstring public message;\n\tfunction hello() public {\n\tmessage = \"Hello, World : This is a Solidity Smart Contract on the Private Ethereum Blockchain \";\n\t}\n}\n",
  "sourcePath": "/home/rohith/BAVI/truffle/contracts/Hello.sol",
  "compiler": {
    "name": "solc",
    "version": "0.5.16+commit.9c3226ce.Emscripten.clang"
  },
  "schemaVersion": "3.0.23",
  "updatedAt": "2020-03-26T14:18:03.776Z",
  "devdoc": {
    "methods": {}
  },
  "userdoc": {
    "methods": {}
  }
}